{
  "contractName": "NftMarket",
  "abi": [
    {
      "inputs": [],
      "stateMutability": "nonpayable",
      "type": "constructor"
    },
    {
      "anonymous": false,
      "inputs": [
        {
          "indexed": true,
          "internalType": "address",
          "name": "owner",
          "type": "address"
        },
        {
          "indexed": true,
          "internalType": "address",
          "name": "approved",
          "type": "address"
        },
        {
          "indexed": true,
          "internalType": "uint256",
          "name": "tokenId",
          "type": "uint256"
        }
      ],
      "name": "Approval",
      "type": "event"
    },
    {
      "anonymous": false,
      "inputs": [
        {
          "indexed": true,
          "internalType": "address",
          "name": "owner",
          "type": "address"
        },
        {
          "indexed": true,
          "internalType": "address",
          "name": "operator",
          "type": "address"
        },
        {
          "indexed": false,
          "internalType": "bool",
          "name": "approved",
          "type": "bool"
        }
      ],
      "name": "ApprovalForAll",
      "type": "event"
    },
    {
      "anonymous": false,
      "inputs": [
        {
          "indexed": false,
          "internalType": "uint256",
          "name": "tokenId",
          "type": "uint256"
        },
        {
          "indexed": false,
          "internalType": "uint256",
          "name": "price",
          "type": "uint256"
        },
        {
          "indexed": false,
          "internalType": "address",
          "name": "creator",
          "type": "address"
        },
        {
          "indexed": false,
          "internalType": "bool",
          "name": "isListed",
          "type": "bool"
        }
      ],
      "name": "NftItemCreated",
      "type": "event"
    },
    {
      "anonymous": false,
      "inputs": [
        {
          "indexed": true,
          "internalType": "address",
          "name": "previousOwner",
          "type": "address"
        },
        {
          "indexed": true,
          "internalType": "address",
          "name": "newOwner",
          "type": "address"
        }
      ],
      "name": "OwnershipTransferred",
      "type": "event"
    },
    {
      "anonymous": false,
      "inputs": [
        {
          "indexed": true,
          "internalType": "address",
          "name": "from",
          "type": "address"
        },
        {
          "indexed": true,
          "internalType": "address",
          "name": "to",
          "type": "address"
        },
        {
          "indexed": true,
          "internalType": "uint256",
          "name": "tokenId",
          "type": "uint256"
        }
      ],
      "name": "Transfer",
      "type": "event"
    },
    {
      "inputs": [
        {
          "internalType": "address",
          "name": "to",
          "type": "address"
        },
        {
          "internalType": "uint256",
          "name": "tokenId",
          "type": "uint256"
        }
      ],
      "name": "approve",
      "outputs": [],
      "stateMutability": "nonpayable",
      "type": "function"
    },
    {
      "inputs": [
        {
          "internalType": "address",
          "name": "owner",
          "type": "address"
        }
      ],
      "name": "balanceOf",
      "outputs": [
        {
          "internalType": "uint256",
          "name": "",
          "type": "uint256"
        }
      ],
      "stateMutability": "view",
      "type": "function",
      "constant": true
    },
    {
      "inputs": [
        {
          "internalType": "uint256",
          "name": "tokenId",
          "type": "uint256"
        }
      ],
      "name": "getApproved",
      "outputs": [
        {
          "internalType": "address",
          "name": "",
          "type": "address"
        }
      ],
      "stateMutability": "view",
      "type": "function",
      "constant": true
    },
    {
      "inputs": [
        {
          "internalType": "address",
          "name": "owner",
          "type": "address"
        },
        {
          "internalType": "address",
          "name": "operator",
          "type": "address"
        }
      ],
      "name": "isApprovedForAll",
      "outputs": [
        {
          "internalType": "bool",
          "name": "",
          "type": "bool"
        }
      ],
      "stateMutability": "view",
      "type": "function",
      "constant": true
    },
    {
      "inputs": [],
      "name": "listingPrice",
      "outputs": [
        {
          "internalType": "uint256",
          "name": "",
          "type": "uint256"
        }
      ],
      "stateMutability": "view",
      "type": "function",
      "constant": true
    },
    {
      "inputs": [],
      "name": "name",
      "outputs": [
        {
          "internalType": "string",
          "name": "",
          "type": "string"
        }
      ],
      "stateMutability": "view",
      "type": "function",
      "constant": true
    },
    {
      "inputs": [],
      "name": "owner",
      "outputs": [
        {
          "internalType": "address",
          "name": "",
          "type": "address"
        }
      ],
      "stateMutability": "view",
      "type": "function",
      "constant": true
    },
    {
      "inputs": [
        {
          "internalType": "uint256",
          "name": "tokenId",
          "type": "uint256"
        }
      ],
      "name": "ownerOf",
      "outputs": [
        {
          "internalType": "address",
          "name": "",
          "type": "address"
        }
      ],
      "stateMutability": "view",
      "type": "function",
      "constant": true
    },
    {
      "inputs": [],
      "name": "renounceOwnership",
      "outputs": [],
      "stateMutability": "nonpayable",
      "type": "function"
    },
    {
      "inputs": [
        {
          "internalType": "address",
          "name": "from",
          "type": "address"
        },
        {
          "internalType": "address",
          "name": "to",
          "type": "address"
        },
        {
          "internalType": "uint256",
          "name": "tokenId",
          "type": "uint256"
        }
      ],
      "name": "safeTransferFrom",
      "outputs": [],
      "stateMutability": "nonpayable",
      "type": "function"
    },
    {
      "inputs": [
        {
          "internalType": "address",
          "name": "from",
          "type": "address"
        },
        {
          "internalType": "address",
          "name": "to",
          "type": "address"
        },
        {
          "internalType": "uint256",
          "name": "tokenId",
          "type": "uint256"
        },
        {
          "internalType": "bytes",
          "name": "data",
          "type": "bytes"
        }
      ],
      "name": "safeTransferFrom",
      "outputs": [],
      "stateMutability": "nonpayable",
      "type": "function"
    },
    {
      "inputs": [
        {
          "internalType": "address",
          "name": "operator",
          "type": "address"
        },
        {
          "internalType": "bool",
          "name": "approved",
          "type": "bool"
        }
      ],
      "name": "setApprovalForAll",
      "outputs": [],
      "stateMutability": "nonpayable",
      "type": "function"
    },
    {
      "inputs": [
        {
          "internalType": "bytes4",
          "name": "interfaceId",
          "type": "bytes4"
        }
      ],
      "name": "supportsInterface",
      "outputs": [
        {
          "internalType": "bool",
          "name": "",
          "type": "bool"
        }
      ],
      "stateMutability": "view",
      "type": "function",
      "constant": true
    },
    {
      "inputs": [],
      "name": "symbol",
      "outputs": [
        {
          "internalType": "string",
          "name": "",
          "type": "string"
        }
      ],
      "stateMutability": "view",
      "type": "function",
      "constant": true
    },
    {
      "inputs": [
        {
          "internalType": "uint256",
          "name": "tokenId",
          "type": "uint256"
        }
      ],
      "name": "tokenURI",
      "outputs": [
        {
          "internalType": "string",
          "name": "",
          "type": "string"
        }
      ],
      "stateMutability": "view",
      "type": "function",
      "constant": true
    },
    {
      "inputs": [
        {
          "internalType": "address",
          "name": "from",
          "type": "address"
        },
        {
          "internalType": "address",
          "name": "to",
          "type": "address"
        },
        {
          "internalType": "uint256",
          "name": "tokenId",
          "type": "uint256"
        }
      ],
      "name": "transferFrom",
      "outputs": [],
      "stateMutability": "nonpayable",
      "type": "function"
    },
    {
      "inputs": [
        {
          "internalType": "address",
          "name": "newOwner",
          "type": "address"
        }
      ],
      "name": "transferOwnership",
      "outputs": [],
      "stateMutability": "nonpayable",
      "type": "function"
    },
    {
      "inputs": [
        {
          "internalType": "uint256",
          "name": "newPrice",
          "type": "uint256"
        }
      ],
      "name": "setListingPrice",
      "outputs": [],
      "stateMutability": "nonpayable",
      "type": "function"
    },
    {
      "inputs": [
        {
          "internalType": "uint256",
          "name": "tokenId",
          "type": "uint256"
        }
      ],
      "name": "getNftItem",
      "outputs": [
        {
          "components": [
            {
              "internalType": "uint256",
              "name": "tokenId",
              "type": "uint256"
            },
            {
              "internalType": "uint256",
              "name": "price",
              "type": "uint256"
            },
            {
              "internalType": "address",
              "name": "creator",
              "type": "address"
            },
            {
              "internalType": "bool",
              "name": "isListed",
              "type": "bool"
            }
          ],
          "internalType": "struct NftMarket.NftItem",
          "name": "",
          "type": "tuple"
        }
      ],
      "stateMutability": "view",
      "type": "function",
      "constant": true
    },
    {
      "inputs": [],
      "name": "listedItemsCount",
      "outputs": [
        {
          "internalType": "uint256",
          "name": "",
          "type": "uint256"
        }
      ],
      "stateMutability": "view",
      "type": "function",
      "constant": true
    },
    {
      "inputs": [
        {
          "internalType": "string",
          "name": "tokenURI",
          "type": "string"
        }
      ],
      "name": "tokenURIExists",
      "outputs": [
        {
          "internalType": "bool",
          "name": "",
          "type": "bool"
        }
      ],
      "stateMutability": "view",
      "type": "function",
      "constant": true
    },
    {
      "inputs": [],
      "name": "totalSupply",
      "outputs": [
        {
          "internalType": "uint256",
          "name": "",
          "type": "uint256"
        }
      ],
      "stateMutability": "view",
      "type": "function",
      "constant": true
    },
    {
      "inputs": [
        {
          "internalType": "uint256",
          "name": "index",
          "type": "uint256"
        }
      ],
      "name": "tokenByIndex",
      "outputs": [
        {
          "internalType": "uint256",
          "name": "",
          "type": "uint256"
        }
      ],
      "stateMutability": "view",
      "type": "function",
      "constant": true
    },
    {
      "inputs": [
        {
          "internalType": "address",
          "name": "owner",
          "type": "address"
        },
        {
          "internalType": "uint256",
          "name": "index",
          "type": "uint256"
        }
      ],
      "name": "tokenOfOwnerByIndex",
      "outputs": [
        {
          "internalType": "uint256",
          "name": "",
          "type": "uint256"
        }
      ],
      "stateMutability": "view",
      "type": "function",
      "constant": true
    },
    {
      "inputs": [],
      "name": "getAllNftsOnSale",
      "outputs": [
        {
          "components": [
            {
              "internalType": "uint256",
              "name": "tokenId",
              "type": "uint256"
            },
            {
              "internalType": "uint256",
              "name": "price",
              "type": "uint256"
            },
            {
              "internalType": "address",
              "name": "creator",
              "type": "address"
            },
            {
              "internalType": "bool",
              "name": "isListed",
              "type": "bool"
            }
          ],
          "internalType": "struct NftMarket.NftItem[]",
          "name": "",
          "type": "tuple[]"
        }
      ],
      "stateMutability": "view",
      "type": "function",
      "constant": true
    },
    {
      "inputs": [],
      "name": "getOwnedNfts",
      "outputs": [
        {
          "components": [
            {
              "internalType": "uint256",
              "name": "tokenId",
              "type": "uint256"
            },
            {
              "internalType": "uint256",
              "name": "price",
              "type": "uint256"
            },
            {
              "internalType": "address",
              "name": "creator",
              "type": "address"
            },
            {
              "internalType": "bool",
              "name": "isListed",
              "type": "bool"
            }
          ],
          "internalType": "struct NftMarket.NftItem[]",
          "name": "",
          "type": "tuple[]"
        }
      ],
      "stateMutability": "view",
      "type": "function",
      "constant": true
    },
    {
      "inputs": [
        {
          "internalType": "string",
          "name": "tokenURI",
          "type": "string"
        },
        {
          "internalType": "uint256",
          "name": "price",
          "type": "uint256"
        }
      ],
      "name": "mintToken",
      "outputs": [
        {
          "internalType": "uint256",
          "name": "",
          "type": "uint256"
        }
      ],
      "stateMutability": "payable",
      "type": "function",
      "payable": true
    },
    {
      "inputs": [
        {
          "internalType": "uint256",
          "name": "tokenId",
          "type": "uint256"
        }
      ],
      "name": "buyNft",
      "outputs": [],
      "stateMutability": "payable",
      "type": "function",
      "payable": true
    },
    {
      "inputs": [
        {
          "internalType": "uint256",
          "name": "tokenId",
          "type": "uint256"
        },
        {
          "internalType": "uint256",
          "name": "newPrice",
          "type": "uint256"
        }
      ],
      "name": "placeNftOnSale",
      "outputs": [],
      "stateMutability": "payable",
      "type": "function",
      "payable": true
    }
  ],
  "bytecode": "0x60806040526658d15e176280006008553480156200001c57600080fd5b506040518060400160405280600c81526020017f4372656174757265734e465400000000000000000000000000000000000000008152506040518060400160405280600481526020017f434e46540000000000000000000000000000000000000000000000000000000081525081600090816200009a91906200041d565b508060019081620000ac91906200041d565b505050620000cf620000c3620000d560201b60201c565b620000dd60201b60201c565b62000504565b600033905090565b6000600760009054906101000a900473ffffffffffffffffffffffffffffffffffffffff16905081600760006101000a81548173ffffffffffffffffffffffffffffffffffffffff021916908373ffffffffffffffffffffffffffffffffffffffff1602179055508173ffffffffffffffffffffffffffffffffffffffff168173ffffffffffffffffffffffffffffffffffffffff167f8be0079c531659141344cd1fd0a4f28419497f9722a3daafe3b4186f6b6457e060405160405180910390a35050565b600081519050919050565b7f4e487b7100000000000000000000000000000000000000000000000000000000600052604160045260246000fd5b7f4e487b7100000000000000000000000000000000000000000000000000000000600052602260045260246000fd5b600060028204905060018216806200022557607f821691505b6020821081036200023b576200023a620001dd565b5b50919050565b60008190508160005260206000209050919050565b60006020601f8301049050919050565b600082821b905092915050565b600060088302620002a57fffffffffffffffffffffffffffffffffffffffffffffffffffffffffffffffff8262000266565b620002b1868362000266565b95508019841693508086168417925050509392505050565b6000819050919050565b6000819050919050565b6000620002fe620002f8620002f284620002c9565b620002d3565b620002c9565b9050919050565b6000819050919050565b6200031a83620002dd565b62000332620003298262000305565b84845462000273565b825550505050565b600090565b620003496200033a565b620003568184846200030f565b505050565b5b818110156200037e57620003726000826200033f565b6001810190506200035c565b5050565b601f821115620003cd57620003978162000241565b620003a28462000256565b81016020851015620003b2578190505b620003ca620003c18562000256565b8301826200035b565b50505b505050565b600082821c905092915050565b6000620003f260001984600802620003d2565b1980831691505092915050565b60006200040d8383620003df565b9150826002028217905092915050565b6200042882620001a3565b67ffffffffffffffff811115620004445762000443620001ae565b5b6200045082546200020c565b6200045d82828562000382565b600060209050601f83116001811462000495576000841562000480578287015190505b6200048c8582620003ff565b865550620004fc565b601f198416620004a58662000241565b60005b82811015620004cf57848901518255600182019150602085019450602081019050620004a8565b86831015620004ef5784890151620004eb601f891682620003df565b8355505b6001600288020188555050505b505050505050565b614a1480620005146000396000f3fe6080604052600436106101c25760003560e01c80636f1a0af5116100f7578063a22cb46511610095578063c87b56dd11610064578063c87b56dd14610651578063ccb4918d1461068e578063e985e9c5146106b9578063f2fde38b146106f6576101c2565b8063a22cb465146105a4578063b88d4fde146105cd578063c046372c146105f6578063c78f19f914610626576101c2565b8063715018a6116100d1578063715018a61461050e5780637c726b69146105255780638da5cb5b1461054e57806395d89b4114610579576101c2565b80636f1a0af51461046957806370a08231146104a657806370cbcb43146104e3576101c2565b8063243adbdd1161016457806342842e0e1161013e57806342842e0e1461038957806343d32ae7146103b25780634f6ccce7146103ef5780636352211e1461042c576101c2565b8063243adbdd146103055780632f745c591461032157806336b536be1461035e576101c2565b8063095ea7b3116101a0578063095ea7b31461026c57806318160ddd1461029557806321f422e5146102c057806323b872dd146102dc576101c2565b806301ffc9a7146101c757806306fdde0314610204578063081812fc1461022f575b600080fd5b3480156101d357600080fd5b506101ee60048036038101906101e99190612f0a565b61071f565b6040516101fb9190612f52565b60405180910390f35b34801561021057600080fd5b50610219610801565b6040516102269190612ffd565b60405180910390f35b34801561023b57600080fd5b5061025660048036038101906102519190613055565b610893565b60405161026391906130c3565b60405180910390f35b34801561027857600080fd5b50610293600480360381019061028e919061310a565b6108d9565b005b3480156102a157600080fd5b506102aa6109f0565b6040516102b79190613159565b60405180910390f35b6102da60048036038101906102d59190613174565b6109fd565b005b3480156102e857600080fd5b5061030360048036038101906102fe91906131b4565b610b79565b005b61031f600480360381019061031a9190613055565b610bd9565b005b34801561032d57600080fd5b506103486004803603810190610343919061310a565b610d41565b6040516103559190613159565b60405180910390f35b34801561036a57600080fd5b50610373610de6565b6040516103809190613338565b60405180910390f35b34801561039557600080fd5b506103b060048036038101906103ab91906131b4565b610f80565b005b3480156103be57600080fd5b506103d960048036038101906103d4919061348f565b610fa0565b6040516103e69190612f52565b60405180910390f35b3480156103fb57600080fd5b5061041660048036038101906104119190613055565b610fdc565b6040516104239190613159565b60405180910390f35b34801561043857600080fd5b50610453600480360381019061044e9190613055565b61104d565b60405161046091906130c3565b60405180910390f35b34801561047557600080fd5b50610490600480360381019061048b9190613055565b6110d3565b60405161049d919061352d565b60405180910390f35b3480156104b257600080fd5b506104cd60048036038101906104c89190613548565b611185565b6040516104da9190613159565b60405180910390f35b3480156104ef57600080fd5b506104f861123c565b6040516105059190613338565b60405180910390f35b34801561051a57600080fd5b506105236113a0565b005b34801561053157600080fd5b5061054c60048036038101906105479190613055565b6113b4565b005b34801561055a57600080fd5b50610563611409565b60405161057091906130c3565b60405180910390f35b34801561058557600080fd5b5061058e611433565b60405161059b9190612ffd565b60405180910390f35b3480156105b057600080fd5b506105cb60048036038101906105c691906135a1565b6114c5565b005b3480156105d957600080fd5b506105f460048036038101906105ef9190613682565b6114db565b005b610610600480360381019061060b9190613705565b61153d565b60405161061d9190613159565b60405180910390f35b34801561063257600080fd5b5061063b61164d565b6040516106489190613159565b60405180910390f35b34801561065d57600080fd5b5061067860048036038101906106739190613055565b611653565b6040516106859190612ffd565b60405180910390f35b34801561069a57600080fd5b506106a3611765565b6040516106b09190613159565b60405180910390f35b3480156106c557600080fd5b506106e060048036038101906106db9190613761565b611776565b6040516106ed9190612f52565b60405180910390f35b34801561070257600080fd5b5061071d60048036038101906107189190613548565b61180a565b005b60007f80ac58cd000000000000000000000000000000000000000000000000000000007bffffffffffffffffffffffffffffffffffffffffffffffffffffffff1916827bffffffffffffffffffffffffffffffffffffffffffffffffffffffff191614806107ea57507f5b5e139f000000000000000000000000000000000000000000000000000000007bffffffffffffffffffffffffffffffffffffffffffffffffffffffff1916827bffffffffffffffffffffffffffffffffffffffffffffffffffffffff1916145b806107fa57506107f98261188d565b5b9050919050565b606060008054610810906137d0565b80601f016020809104026020016040519081016040528092919081815260200182805461083c906137d0565b80156108895780601f1061085e57610100808354040283529160200191610889565b820191906000526020600020905b81548152906001019060200180831161086c57829003601f168201915b5050505050905090565b600061089e826118f7565b6004600083815260200190815260200160002060009054906101000a900473ffffffffffffffffffffffffffffffffffffffff169050919050565b60006108e48261104d565b90508073ffffffffffffffffffffffffffffffffffffffff168373ffffffffffffffffffffffffffffffffffffffff1603610954576040517f08c379a000000000000000000000000000000000000000000000000000000000815260040161094b90613873565b60405180910390fd5b8073ffffffffffffffffffffffffffffffffffffffff16610973611942565b73ffffffffffffffffffffffffffffffffffffffff1614806109a257506109a18161099c611942565b611776565b5b6109e1576040517f08c379a00000000000000000000000000000000000000000000000000000000081526004016109d890613905565b60405180910390fd5b6109eb838361194a565b505050565b6000600f80549050905090565b3373ffffffffffffffffffffffffffffffffffffffff16610a1d8361104d565b73ffffffffffffffffffffffffffffffffffffffff1614610a73576040517f08c379a0000000000000000000000000000000000000000000000000000000008152600401610a6a90613997565b60405180910390fd5b60001515600c600084815260200190815260200160002060020160149054906101000a900460ff16151514610add576040517f08c379a0000000000000000000000000000000000000000000000000000000008152600401610ad490613a03565b60405180910390fd5b6008543414610b21576040517f08c379a0000000000000000000000000000000000000000000000000000000008152600401610b1890613a95565b60405180910390fd5b6001600c600084815260200190815260200160002060020160146101000a81548160ff02191690831515021790555080600c600084815260200190815260200160002060010181905550610b756009611a03565b5050565b610b8a610b84611942565b82611a19565b610bc9576040517f08c379a0000000000000000000000000000000000000000000000000000000008152600401610bc090613b27565b60405180910390fd5b610bd4838383611aae565b505050565b6000600c60008381526020019081526020016000206001015490506000610bff8361104d565b90508073ffffffffffffffffffffffffffffffffffffffff163373ffffffffffffffffffffffffffffffffffffffff1603610c6f576040517f08c379a0000000000000000000000000000000000000000000000000000000008152600401610c6690613b93565b60405180910390fd5b813414610cb1576040517f08c379a0000000000000000000000000000000000000000000000000000000008152600401610ca890613bff565b60405180910390fd5b6000600c600085815260200190815260200160002060020160146101000a81548160ff021916908315150217905550610cea6009611da7565b610cf5813385611aae565b8073ffffffffffffffffffffffffffffffffffffffff166108fc349081150290604051600060405180830381858888f19350505050158015610d3b573d6000803e3d6000fd5b50505050565b6000610d4c83611185565b8210610d8d576040517f08c379a0000000000000000000000000000000000000000000000000000000008152600401610d8490613c6b565b60405180910390fd5b600d60008473ffffffffffffffffffffffffffffffffffffffff1673ffffffffffffffffffffffffffffffffffffffff168152602001908152602001600020600083815260200190815260200160002054905092915050565b60606000610df26109f0565b9050600080610e016009611e03565b67ffffffffffffffff811115610e1a57610e19613364565b5b604051908082528060200260200182016040528015610e5357816020015b610e40612e5e565b815260200190600190039081610e385790505b50905060005b83811015610f76576000610e6c82610fdc565b90506000600c60008381526020019081526020016000209050600115158160020160149054906101000a900460ff16151503610f61578060405180608001604052908160008201548152602001600182015481526020016002820160009054906101000a900473ffffffffffffffffffffffffffffffffffffffff1673ffffffffffffffffffffffffffffffffffffffff1673ffffffffffffffffffffffffffffffffffffffff1681526020016002820160149054906101000a900460ff161515151581525050848681518110610f4657610f45613c8b565b5b6020026020010181905250600185610f5e9190613ce9565b94505b50508080610f6e90613d1d565b915050610e59565b5080935050505090565b610f9b838383604051806020016040528060008152506114db565b505050565b600060011515600b83604051610fb69190613da1565b908152602001604051809103902060009054906101000a900460ff161515149050919050565b6000610fe66109f0565b8210611027576040517f08c379a000000000000000000000000000000000000000000000000000000000815260040161101e90613c6b565b60405180910390fd5b600f828154811061103b5761103a613c8b565b5b90600052602060002001549050919050565b60008061105983611e11565b9050600073ffffffffffffffffffffffffffffffffffffffff168173ffffffffffffffffffffffffffffffffffffffff16036110ca576040517f08c379a00000000000000000000000000000000000000000000000000000000081526004016110c190613e04565b60405180910390fd5b80915050919050565b6110db612e5e565b600c600083815260200190815260200160002060405180608001604052908160008201548152602001600182015481526020016002820160009054906101000a900473ffffffffffffffffffffffffffffffffffffffff1673ffffffffffffffffffffffffffffffffffffffff1673ffffffffffffffffffffffffffffffffffffffff1681526020016002820160149054906101000a900460ff1615151515815250509050919050565b60008073ffffffffffffffffffffffffffffffffffffffff168273ffffffffffffffffffffffffffffffffffffffff16036111f5576040517f08c379a00000000000000000000000000000000000000000000000000000000081526004016111ec90613e96565b60405180910390fd5b600360008373ffffffffffffffffffffffffffffffffffffffff1673ffffffffffffffffffffffffffffffffffffffff168152602001908152602001600020549050919050565b6060600061124933611185565b905060008167ffffffffffffffff81111561126757611266613364565b5b6040519080825280602002602001820160405280156112a057816020015b61128d612e5e565b8152602001906001900390816112855790505b50905060005b828110156113975760006112ba3383610d41565b90506000600c600083815260200190815260200160002090508060405180608001604052908160008201548152602001600182015481526020016002820160009054906101000a900473ffffffffffffffffffffffffffffffffffffffff1673ffffffffffffffffffffffffffffffffffffffff1673ffffffffffffffffffffffffffffffffffffffff1681526020016002820160149054906101000a900460ff16151515158152505084848151811061137757611376613c8b565b5b60200260200101819052505050808061138f90613d1d565b9150506112a6565b50809250505090565b6113a8611e4e565b6113b26000611ecc565b565b6113bc611e4e565b600081116113ff576040517f08c379a00000000000000000000000000000000000000000000000000000000081526004016113f690613f02565b60405180910390fd5b8060088190555050565b6000600760009054906101000a900473ffffffffffffffffffffffffffffffffffffffff16905090565b606060018054611442906137d0565b80601f016020809104026020016040519081016040528092919081815260200182805461146e906137d0565b80156114bb5780601f10611490576101008083540402835291602001916114bb565b820191906000526020600020905b81548152906001019060200180831161149e57829003601f168201915b5050505050905090565b6114d76114d0611942565b8383611f92565b5050565b6114ec6114e6611942565b83611a19565b61152b576040517f08c379a000000000000000000000000000000000000000000000000000000000815260040161152290613b27565b60405180910390fd5b611537848484846120fe565b50505050565b600061154883610fa0565b15611588576040517f08c379a000000000000000000000000000000000000000000000000000000000815260040161157f90613f6e565b60405180910390fd5b60085434146115cc576040517f08c379a00000000000000000000000000000000000000000000000000000000081526004016115c390614000565b60405180910390fd5b6115d6600a611a03565b6115e06009611a03565b60006115ec600a611e03565b90506115f8338261215a565b6116028185612178565b61160c81846121e5565b6001600b8560405161161e9190613da1565b908152602001604051809103902060006101000a81548160ff0219169083151502179055508091505092915050565b60085481565b606061165e826118f7565b600060066000848152602001908152602001600020805461167e906137d0565b80601f01602080910402602001604051908101604052809291908181526020018280546116aa906137d0565b80156116f75780601f106116cc576101008083540402835291602001916116f7565b820191906000526020600020905b8154815290600101906020018083116116da57829003601f168201915b505050505090506000611708612335565b9050600081510361171d578192505050611760565b60008251111561175257808260405160200161173a929190614020565b60405160208183030381529060405292505050611760565b61175b8461234c565b925050505b919050565b60006117716009611e03565b905090565b6000600560008473ffffffffffffffffffffffffffffffffffffffff1673ffffffffffffffffffffffffffffffffffffffff16815260200190815260200160002060008373ffffffffffffffffffffffffffffffffffffffff1673ffffffffffffffffffffffffffffffffffffffff16815260200190815260200160002060009054906101000a900460ff16905092915050565b611812611e4e565b600073ffffffffffffffffffffffffffffffffffffffff168173ffffffffffffffffffffffffffffffffffffffff1603611881576040517f08c379a0000000000000000000000000000000000000000000000000000000008152600401611878906140b6565b60405180910390fd5b61188a81611ecc565b50565b60007f01ffc9a7000000000000000000000000000000000000000000000000000000007bffffffffffffffffffffffffffffffffffffffffffffffffffffffff1916827bffffffffffffffffffffffffffffffffffffffffffffffffffffffff1916149050919050565b611900816123b4565b61193f576040517f08c379a000000000000000000000000000000000000000000000000000000000815260040161193690613e04565b60405180910390fd5b50565b600033905090565b816004600083815260200190815260200160002060006101000a81548173ffffffffffffffffffffffffffffffffffffffff021916908373ffffffffffffffffffffffffffffffffffffffff160217905550808273ffffffffffffffffffffffffffffffffffffffff166119bd8361104d565b73ffffffffffffffffffffffffffffffffffffffff167f8c5be1e5ebec7d5bd14f71427d1e84f3dd0314c0f7b2291e5b200ac8c7c3b92560405160405180910390a45050565b6001816000016000828254019250508190555050565b600080611a258361104d565b90508073ffffffffffffffffffffffffffffffffffffffff168473ffffffffffffffffffffffffffffffffffffffff161480611a675750611a668185611776565b5b80611aa557508373ffffffffffffffffffffffffffffffffffffffff16611a8d84610893565b73ffffffffffffffffffffffffffffffffffffffff16145b91505092915050565b8273ffffffffffffffffffffffffffffffffffffffff16611ace8261104d565b73ffffffffffffffffffffffffffffffffffffffff1614611b24576040517f08c379a0000000000000000000000000000000000000000000000000000000008152600401611b1b90614148565b60405180910390fd5b600073ffffffffffffffffffffffffffffffffffffffff168273ffffffffffffffffffffffffffffffffffffffff1603611b93576040517f08c379a0000000000000000000000000000000000000000000000000000000008152600401611b8a906141da565b60405180910390fd5b611ba083838360016123f5565b8273ffffffffffffffffffffffffffffffffffffffff16611bc08261104d565b73ffffffffffffffffffffffffffffffffffffffff1614611c16576040517f08c379a0000000000000000000000000000000000000000000000000000000008152600401611c0d90614148565b60405180910390fd5b6004600082815260200190815260200160002060006101000a81549073ffffffffffffffffffffffffffffffffffffffff02191690556001600360008573ffffffffffffffffffffffffffffffffffffffff1673ffffffffffffffffffffffffffffffffffffffff168152602001908152602001600020600082825403925050819055506001600360008473ffffffffffffffffffffffffffffffffffffffff1673ffffffffffffffffffffffffffffffffffffffff16815260200190815260200160002060008282540192505081905550816002600083815260200190815260200160002060006101000a81548173ffffffffffffffffffffffffffffffffffffffff021916908373ffffffffffffffffffffffffffffffffffffffff160217905550808273ffffffffffffffffffffffffffffffffffffffff168473ffffffffffffffffffffffffffffffffffffffff167fddf252ad1be2c89b69c2b068fc378daa952ba7f163c4a11628f55a4df523b3ef60405160405180910390a4611da28383836001612509565b505050565b60008160000154905060008111611df3576040517f08c379a0000000000000000000000000000000000000000000000000000000008152600401611dea90614246565b60405180910390fd5b6001810382600001819055505050565b600081600001549050919050565b60006002600083815260200190815260200160002060009054906101000a900473ffffffffffffffffffffffffffffffffffffffff169050919050565b611e56611942565b73ffffffffffffffffffffffffffffffffffffffff16611e74611409565b73ffffffffffffffffffffffffffffffffffffffff1614611eca576040517f08c379a0000000000000000000000000000000000000000000000000000000008152600401611ec1906142b2565b60405180910390fd5b565b6000600760009054906101000a900473ffffffffffffffffffffffffffffffffffffffff16905081600760006101000a81548173ffffffffffffffffffffffffffffffffffffffff021916908373ffffffffffffffffffffffffffffffffffffffff1602179055508173ffffffffffffffffffffffffffffffffffffffff168173ffffffffffffffffffffffffffffffffffffffff167f8be0079c531659141344cd1fd0a4f28419497f9722a3daafe3b4186f6b6457e060405160405180910390a35050565b8173ffffffffffffffffffffffffffffffffffffffff168373ffffffffffffffffffffffffffffffffffffffff1603612000576040517f08c379a0000000000000000000000000000000000000000000000000000000008152600401611ff79061431e565b60405180910390fd5b80600560008573ffffffffffffffffffffffffffffffffffffffff1673ffffffffffffffffffffffffffffffffffffffff16815260200190815260200160002060008473ffffffffffffffffffffffffffffffffffffffff1673ffffffffffffffffffffffffffffffffffffffff16815260200190815260200160002060006101000a81548160ff0219169083151502179055508173ffffffffffffffffffffffffffffffffffffffff168373ffffffffffffffffffffffffffffffffffffffff167f17307eab39ab6107e8899845ad3d59bd9653f200f220920489ca2b5937696c31836040516120f19190612f52565b60405180910390a3505050565b612109848484611aae565b6121158484848461250f565b612154576040517f08c379a000000000000000000000000000000000000000000000000000000000815260040161214b906143b0565b60405180910390fd5b50505050565b612174828260405180602001604052806000815250612696565b5050565b612181826123b4565b6121c0576040517f08c379a00000000000000000000000000000000000000000000000000000000081526004016121b790614442565b60405180910390fd5b806006600084815260200190815260200160002090816121e0919061460e565b505050565b60008111612228576040517f08c379a000000000000000000000000000000000000000000000000000000000815260040161221f9061472c565b60405180910390fd5b60405180608001604052808381526020018281526020013373ffffffffffffffffffffffffffffffffffffffff16815260200160011515815250600c6000848152602001908152602001600020600082015181600001556020820151816001015560408201518160020160006101000a81548173ffffffffffffffffffffffffffffffffffffffff021916908373ffffffffffffffffffffffffffffffffffffffff16021790555060608201518160020160146101000a81548160ff0219169083151502179055509050507f470031062672bc0246e132c723a729c4676710ec663a29e86c88678032daddea8282336001604051612329949392919061474c565b60405180910390a15050565b606060405180602001604052806000815250905090565b6060612357826118f7565b6000612361612335565b9050600081511161238157604051806020016040528060008152506123ac565b8061238b846126f1565b60405160200161239c929190614020565b6040516020818303038152906040525b915050919050565b60008073ffffffffffffffffffffffffffffffffffffffff166123d683611e11565b73ffffffffffffffffffffffffffffffffffffffff1614159050919050565b612401848484846127bf565b600073ffffffffffffffffffffffffffffffffffffffff168473ffffffffffffffffffffffffffffffffffffffff16036124435761243e826127c5565b612482565b8273ffffffffffffffffffffffffffffffffffffffff168473ffffffffffffffffffffffffffffffffffffffff161461248157612480848361280e565b5b5b600073ffffffffffffffffffffffffffffffffffffffff168373ffffffffffffffffffffffffffffffffffffffff16036124c4576124bf8261297b565b612503565b8373ffffffffffffffffffffffffffffffffffffffff168373ffffffffffffffffffffffffffffffffffffffff1614612502576125018383612a4c565b5b5b50505050565b50505050565b60006125308473ffffffffffffffffffffffffffffffffffffffff16612acb565b15612689578373ffffffffffffffffffffffffffffffffffffffff1663150b7a02612559611942565b8786866040518563ffffffff1660e01b815260040161257b94939291906147e6565b6020604051808303816000875af19250505080156125b757506040513d601f19601f820116820180604052508101906125b49190614847565b60015b612639573d80600081146125e7576040519150601f19603f3d011682016040523d82523d6000602084013e6125ec565b606091505b506000815103612631576040517f08c379a0000000000000000000000000000000000000000000000000000000008152600401612628906143b0565b60405180910390fd5b805181602001fd5b63150b7a0260e01b7bffffffffffffffffffffffffffffffffffffffffffffffffffffffff1916817bffffffffffffffffffffffffffffffffffffffffffffffffffffffff19161491505061268e565b600190505b949350505050565b6126a08383612aee565b6126ad600084848461250f565b6126ec576040517f08c379a00000000000000000000000000000000000000000000000000000000081526004016126e3906143b0565b60405180910390fd5b505050565b60606000600161270084612d0b565b01905060008167ffffffffffffffff81111561271f5761271e613364565b5b6040519080825280601f01601f1916602001820160405280156127515781602001600182028036833780820191505090505b509050600082602001820190505b6001156127b4578080600190039150507f3031323334353637383961626364656600000000000000000000000000000000600a86061a8153600a85816127a8576127a7614874565b5b0494506000850361275f575b819350505050919050565b50505050565b600f805490506010600083815260200190815260200160002081905550600f81908060018154018082558091505060019003906000526020600020016000909190919091505550565b6000600161281b84611185565b61282591906148a3565b90506000600e600084815260200190815260200160002054905081811461290a576000600d60008673ffffffffffffffffffffffffffffffffffffffff1673ffffffffffffffffffffffffffffffffffffffff168152602001908152602001600020600084815260200190815260200160002054905082600d60008773ffffffffffffffffffffffffffffffffffffffff1673ffffffffffffffffffffffffffffffffffffffff16815260200190815260200160002060008481526020019081526020016000208190555081600e600083815260200190815260200160002081905550505b600e600084815260200190815260200160002060009055600d60008573ffffffffffffffffffffffffffffffffffffffff1673ffffffffffffffffffffffffffffffffffffffff16815260200190815260200160002060008381526020019081526020016000206000905550505050565b60006001600f8054905061298f91906148a3565b90506000601060008481526020019081526020016000205490506000600f83815481106129bf576129be613c8b565b5b9060005260206000200154905080600f83815481106129e1576129e0613c8b565b5b90600052602060002001819055508160106000838152602001908152602001600020819055506010600085815260200190815260200160002060009055600f805480612a3057612a2f6148d7565b5b6001900381819060005260206000200160009055905550505050565b6000612a5783611185565b905081600d60008573ffffffffffffffffffffffffffffffffffffffff1673ffffffffffffffffffffffffffffffffffffffff16815260200190815260200160002060008381526020019081526020016000208190555080600e600084815260200190815260200160002081905550505050565b6000808273ffffffffffffffffffffffffffffffffffffffff163b119050919050565b600073ffffffffffffffffffffffffffffffffffffffff168273ffffffffffffffffffffffffffffffffffffffff1603612b5d576040517f08c379a0000000000000000000000000000000000000000000000000000000008152600401612b5490614952565b60405180910390fd5b612b66816123b4565b15612ba6576040517f08c379a0000000000000000000000000000000000000000000000000000000008152600401612b9d906149be565b60405180910390fd5b612bb46000838360016123f5565b612bbd816123b4565b15612bfd576040517f08c379a0000000000000000000000000000000000000000000000000000000008152600401612bf4906149be565b60405180910390fd5b6001600360008473ffffffffffffffffffffffffffffffffffffffff1673ffffffffffffffffffffffffffffffffffffffff16815260200190815260200160002060008282540192505081905550816002600083815260200190815260200160002060006101000a81548173ffffffffffffffffffffffffffffffffffffffff021916908373ffffffffffffffffffffffffffffffffffffffff160217905550808273ffffffffffffffffffffffffffffffffffffffff16600073ffffffffffffffffffffffffffffffffffffffff167fddf252ad1be2c89b69c2b068fc378daa952ba7f163c4a11628f55a4df523b3ef60405160405180910390a4612d07600083836001612509565b5050565b600080600090507a184f03e93ff9f4daa797ed6e38ed64bf6a1f0100000000000000008310612d69577a184f03e93ff9f4daa797ed6e38ed64bf6a1f0100000000000000008381612d5f57612d5e614874565b5b0492506040810190505b6d04ee2d6d415b85acef81000000008310612da6576d04ee2d6d415b85acef81000000008381612d9c57612d9b614874565b5b0492506020810190505b662386f26fc100008310612dd557662386f26fc100008381612dcb57612dca614874565b5b0492506010810190505b6305f5e1008310612dfe576305f5e1008381612df457612df3614874565b5b0492506008810190505b6127108310612e23576127108381612e1957612e18614874565b5b0492506004810190505b60648310612e465760648381612e3c57612e3b614874565b5b0492506002810190505b600a8310612e55576001810190505b80915050919050565b60405180608001604052806000815260200160008152602001600073ffffffffffffffffffffffffffffffffffffffff1681526020016000151581525090565b6000604051905090565b600080fd5b600080fd5b60007fffffffff0000000000000000000000000000000000000000000000000000000082169050919050565b612ee781612eb2565b8114612ef257600080fd5b50565b600081359050612f0481612ede565b92915050565b600060208284031215612f2057612f1f612ea8565b5b6000612f2e84828501612ef5565b91505092915050565b60008115159050919050565b612f4c81612f37565b82525050565b6000602082019050612f676000830184612f43565b92915050565b600081519050919050565b600082825260208201905092915050565b60005b83811015612fa7578082015181840152602081019050612f8c565b60008484015250505050565b6000601f19601f8301169050919050565b6000612fcf82612f6d565b612fd98185612f78565b9350612fe9818560208601612f89565b612ff281612fb3565b840191505092915050565b600060208201905081810360008301526130178184612fc4565b905092915050565b6000819050919050565b6130328161301f565b811461303d57600080fd5b50565b60008135905061304f81613029565b92915050565b60006020828403121561306b5761306a612ea8565b5b600061307984828501613040565b91505092915050565b600073ffffffffffffffffffffffffffffffffffffffff82169050919050565b60006130ad82613082565b9050919050565b6130bd816130a2565b82525050565b60006020820190506130d860008301846130b4565b92915050565b6130e7816130a2565b81146130f257600080fd5b50565b600081359050613104816130de565b92915050565b6000806040838503121561312157613120612ea8565b5b600061312f858286016130f5565b925050602061314085828601613040565b9150509250929050565b6131538161301f565b82525050565b600060208201905061316e600083018461314a565b92915050565b6000806040838503121561318b5761318a612ea8565b5b600061319985828601613040565b92505060206131aa85828601613040565b9150509250929050565b6000806000606084860312156131cd576131cc612ea8565b5b60006131db868287016130f5565b93505060206131ec868287016130f5565b92505060406131fd86828701613040565b9150509250925092565b600081519050919050565b600082825260208201905092915050565b6000819050602082019050919050565b61323c8161301f565b82525050565b61324b816130a2565b82525050565b61325a81612f37565b82525050565b6080820160008201516132766000850182613233565b5060208201516132896020850182613233565b50604082015161329c6040850182613242565b5060608201516132af6060850182613251565b50505050565b60006132c18383613260565b60808301905092915050565b6000602082019050919050565b60006132e582613207565b6132ef8185613212565b93506132fa83613223565b8060005b8381101561332b57815161331288826132b5565b975061331d836132cd565b9250506001810190506132fe565b5085935050505092915050565b6000602082019050818103600083015261335281846132da565b905092915050565b600080fd5b600080fd5b7f4e487b7100000000000000000000000000000000000000000000000000000000600052604160045260246000fd5b61339c82612fb3565b810181811067ffffffffffffffff821117156133bb576133ba613364565b5b80604052505050565b60006133ce612e9e565b90506133da8282613393565b919050565b600067ffffffffffffffff8211156133fa576133f9613364565b5b61340382612fb3565b9050602081019050919050565b82818337600083830152505050565b600061343261342d846133df565b6133c4565b90508281526020810184848401111561344e5761344d61335f565b5b613459848285613410565b509392505050565b600082601f8301126134765761347561335a565b5b813561348684826020860161341f565b91505092915050565b6000602082840312156134a5576134a4612ea8565b5b600082013567ffffffffffffffff8111156134c3576134c2612ead565b5b6134cf84828501613461565b91505092915050565b6080820160008201516134ee6000850182613233565b5060208201516135016020850182613233565b5060408201516135146040850182613242565b5060608201516135276060850182613251565b50505050565b600060808201905061354260008301846134d8565b92915050565b60006020828403121561355e5761355d612ea8565b5b600061356c848285016130f5565b91505092915050565b61357e81612f37565b811461358957600080fd5b50565b60008135905061359b81613575565b92915050565b600080604083850312156135b8576135b7612ea8565b5b60006135c6858286016130f5565b92505060206135d78582860161358c565b9150509250929050565b600067ffffffffffffffff8211156135fc576135fb613364565b5b61360582612fb3565b9050602081019050919050565b6000613625613620846135e1565b6133c4565b9050828152602081018484840111156136415761364061335f565b5b61364c848285613410565b509392505050565b600082601f8301126136695761366861335a565b5b8135613679848260208601613612565b91505092915050565b6000806000806080858703121561369c5761369b612ea8565b5b60006136aa878288016130f5565b94505060206136bb878288016130f5565b93505060406136cc87828801613040565b925050606085013567ffffffffffffffff8111156136ed576136ec612ead565b5b6136f987828801613654565b91505092959194509250565b6000806040838503121561371c5761371b612ea8565b5b600083013567ffffffffffffffff81111561373a57613739612ead565b5b61374685828601613461565b925050602061375785828601613040565b9150509250929050565b6000806040838503121561377857613777612ea8565b5b6000613786858286016130f5565b9250506020613797858286016130f5565b9150509250929050565b7f4e487b7100000000000000000000000000000000000000000000000000000000600052602260045260246000fd5b600060028204905060018216806137e857607f821691505b6020821081036137fb576137fa6137a1565b5b50919050565b7f4552433732313a20617070726f76616c20746f2063757272656e74206f776e6560008201527f7200000000000000000000000000000000000000000000000000000000000000602082015250565b600061385d602183612f78565b915061386882613801565b604082019050919050565b6000602082019050818103600083015261388c81613850565b9050919050565b7f4552433732313a20617070726f76652063616c6c6572206973206e6f7420746f60008201527f6b656e206f776e6572206f7220617070726f76656420666f7220616c6c000000602082015250565b60006138ef603d83612f78565b91506138fa82613893565b604082019050919050565b6000602082019050818103600083015261391e816138e2565b9050919050565b7f596f7520617265206e6f7420746865206f776e6572206f662074686973204e4660008201527f5400000000000000000000000000000000000000000000000000000000000000602082015250565b6000613981602183612f78565b915061398c82613925565b604082019050919050565b600060208201905081810360008301526139b081613974565b9050919050565b7f4974656d20697320616c7265616479206f6e2073616c65000000000000000000600082015250565b60006139ed601783612f78565b91506139f8826139b7565b602082019050919050565b60006020820190508181036000830152613a1c816139e0565b9050919050565b7f5072696365206d75737420626520657175616c20746f20746865206c6973746960008201527f6e67207072696365000000000000000000000000000000000000000000000000602082015250565b6000613a7f602883612f78565b9150613a8a82613a23565b604082019050919050565b60006020820190508181036000830152613aae81613a72565b9050919050565b7f4552433732313a2063616c6c6572206973206e6f7420746f6b656e206f776e6560008201527f72206f7220617070726f76656400000000000000000000000000000000000000602082015250565b6000613b11602d83612f78565b9150613b1c82613ab5565b604082019050919050565b60006020820190508181036000830152613b4081613b04565b9050919050565b7f596f7520616c7265616479206f776e2074686973204e46540000000000000000600082015250565b6000613b7d601883612f78565b9150613b8882613b47565b602082019050919050565b60006020820190508181036000830152613bac81613b70565b9050919050565b7f506c65617365207375626d6974207468652061736b696e672070726963650000600082015250565b6000613be9601e83612f78565b9150613bf482613bb3565b602082019050919050565b60006020820190508181036000830152613c1881613bdc565b9050919050565b7f496e646578206f7574206f6620626f756e647300000000000000000000000000600082015250565b6000613c55601383612f78565b9150613c6082613c1f565b602082019050919050565b60006020820190508181036000830152613c8481613c48565b9050919050565b7f4e487b7100000000000000000000000000000000000000000000000000000000600052603260045260246000fd5b7f4e487b7100000000000000000000000000000000000000000000000000000000600052601160045260246000fd5b6000613cf48261301f565b9150613cff8361301f565b9250828201905080821115613d1757613d16613cba565b5b92915050565b6000613d288261301f565b91507fffffffffffffffffffffffffffffffffffffffffffffffffffffffffffffffff8203613d5a57613d59613cba565b5b600182019050919050565b600081905092915050565b6000613d7b82612f6d565b613d858185613d65565b9350613d95818560208601612f89565b80840191505092915050565b6000613dad8284613d70565b915081905092915050565b7f4552433732313a20696e76616c696420746f6b656e2049440000000000000000600082015250565b6000613dee601883612f78565b9150613df982613db8565b602082019050919050565b60006020820190508181036000830152613e1d81613de1565b9050919050565b7f4552433732313a2061646472657373207a65726f206973206e6f74206120766160008201527f6c6964206f776e65720000000000000000000000000000000000000000000000602082015250565b6000613e80602983612f78565b9150613e8b82613e24565b604082019050919050565b60006020820190508181036000830152613eaf81613e73565b9050919050565b7f5072696365206d7573742062652061746c656173742031207765690000000000600082015250565b6000613eec601b83612f78565b9150613ef782613eb6565b602082019050919050565b60006020820190508181036000830152613f1b81613edf565b9050919050565b7f546f6b656e2055524920616c7265616479206578697374730000000000000000600082015250565b6000613f58601883612f78565b9150613f6382613f22565b602082019050919050565b60006020820190508181036000830152613f8781613f4b565b9050919050565b7f5072696365206d75737420626520657175616c20746f206c697374696e67207060008201527f7269636500000000000000000000000000000000000000000000000000000000602082015250565b6000613fea602483612f78565b9150613ff582613f8e565b604082019050919050565b6000602082019050818103600083015261401981613fdd565b9050919050565b600061402c8285613d70565b91506140388284613d70565b91508190509392505050565b7f4f776e61626c653a206e6577206f776e657220697320746865207a65726f206160008201527f6464726573730000000000000000000000000000000000000000000000000000602082015250565b60006140a0602683612f78565b91506140ab82614044565b604082019050919050565b600060208201905081810360008301526140cf81614093565b9050919050565b7f4552433732313a207472616e736665722066726f6d20696e636f72726563742060008201527f6f776e6572000000000000000000000000000000000000000000000000000000602082015250565b6000614132602583612f78565b915061413d826140d6565b604082019050919050565b6000602082019050818103600083015261416181614125565b9050919050565b7f4552433732313a207472616e7366657220746f20746865207a65726f2061646460008201527f7265737300000000000000000000000000000000000000000000000000000000602082015250565b60006141c4602483612f78565b91506141cf82614168565b604082019050919050565b600060208201905081810360008301526141f3816141b7565b9050919050565b7f436f756e7465723a2064656372656d656e74206f766572666c6f770000000000600082015250565b6000614230601b83612f78565b915061423b826141fa565b602082019050919050565b6000602082019050818103600083015261425f81614223565b9050919050565b7f4f776e61626c653a2063616c6c6572206973206e6f7420746865206f776e6572600082015250565b600061429c602083612f78565b91506142a782614266565b602082019050919050565b600060208201905081810360008301526142cb8161428f565b9050919050565b7f4552433732313a20617070726f766520746f2063616c6c657200000000000000600082015250565b6000614308601983612f78565b9150614313826142d2565b602082019050919050565b60006020820190508181036000830152614337816142fb565b9050919050565b7f4552433732313a207472616e7366657220746f206e6f6e20455243373231526560008201527f63656976657220696d706c656d656e7465720000000000000000000000000000602082015250565b600061439a603283612f78565b91506143a58261433e565b604082019050919050565b600060208201905081810360008301526143c98161438d565b9050919050565b7f45524337323155524953746f726167653a2055524920736574206f66206e6f6e60008201527f6578697374656e7420746f6b656e000000000000000000000000000000000000602082015250565b600061442c602e83612f78565b9150614437826143d0565b604082019050919050565b6000602082019050818103600083015261445b8161441f565b9050919050565b60008190508160005260206000209050919050565b60006020601f8301049050919050565b600082821b905092915050565b6000600883026144c47fffffffffffffffffffffffffffffffffffffffffffffffffffffffffffffffff82614487565b6144ce8683614487565b95508019841693508086168417925050509392505050565b6000819050919050565b600061450b6145066145018461301f565b6144e6565b61301f565b9050919050565b6000819050919050565b614525836144f0565b61453961453182614512565b848454614494565b825550505050565b600090565b61454e614541565b61455981848461451c565b505050565b5b8181101561457d57614572600082614546565b60018101905061455f565b5050565b601f8211156145c25761459381614462565b61459c84614477565b810160208510156145ab578190505b6145bf6145b785614477565b83018261455e565b50505b505050565b600082821c905092915050565b60006145e5600019846008026145c7565b1980831691505092915050565b60006145fe83836145d4565b9150826002028217905092915050565b61461782612f6d565b67ffffffffffffffff8111156146305761462f613364565b5b61463a82546137d0565b614645828285614581565b600060209050601f8311600181146146785760008415614666578287015190505b61467085826145f2565b8655506146d8565b601f19841661468686614462565b60005b828110156146ae57848901518255600182019150602085019450602081019050614689565b868310156146cb57848901516146c7601f8916826145d4565b8355505b6001600288020188555050505b505050505050565b7f5072696365206d757374206265206174206c6561737420312077656900000000600082015250565b6000614716601c83612f78565b9150614721826146e0565b602082019050919050565b6000602082019050818103600083015261474581614709565b9050919050565b6000608082019050614761600083018761314a565b61476e602083018661314a565b61477b60408301856130b4565b6147886060830184612f43565b95945050505050565b600081519050919050565b600082825260208201905092915050565b60006147b882614791565b6147c2818561479c565b93506147d2818560208601612f89565b6147db81612fb3565b840191505092915050565b60006080820190506147fb60008301876130b4565b61480860208301866130b4565b614815604083018561314a565b818103606083015261482781846147ad565b905095945050505050565b60008151905061484181612ede565b92915050565b60006020828403121561485d5761485c612ea8565b5b600061486b84828501614832565b91505092915050565b7f4e487b7100000000000000000000000000000000000000000000000000000000600052601260045260246000fd5b60006148ae8261301f565b91506148b98361301f565b92508282039050818111156148d1576148d0613cba565b5b92915050565b7f4e487b7100000000000000000000000000000000000000000000000000000000600052603160045260246000fd5b7f4552433732313a206d696e7420746f20746865207a65726f2061646472657373600082015250565b600061493c602083612f78565b915061494782614906565b602082019050919050565b6000602082019050818103600083015261496b8161492f565b9050919050565b7f4552433732313a20746f6b656e20616c7265616479206d696e74656400000000600082015250565b60006149a8601c83612f78565b91506149b382614972565b602082019050919050565b600060208201905081810360008301526149d78161499b565b905091905056fea264697066735822122018d04197f84e9c8ee895d8e4e5e98e74a99db1509b64f9e45d9096f4576c5c5764736f6c63430008130033",
  "immutableReferences": {},
  "source": "// SPDX-License-Identifier: MIT\npragma solidity 0.8.19;\n\nimport \"@openzeppelin/contracts/token/ERC721/extensions/ERC721URIStorage.sol\";\nimport \"@openzeppelin/contracts/utils/Counters.sol\";\nimport \"@openzeppelin/contracts/access/Ownable.sol\";\n\ncontract NftMarket is ERC721URIStorage, Ownable {\n    using Counters for Counters.Counter;\n\n    struct NftItem {\n        uint tokenId;\n        uint price;\n        address creator;\n        bool isListed;\n    }\n\n    uint public listingPrice = 0.025 ether;\n\n    Counters.Counter private _listedItems;\n    Counters.Counter private _tokenIds;\n\n    mapping(string => bool) private _usedTokenURIs;\n    mapping(uint => NftItem) private _idToNftItem;\n\n    mapping(address => mapping(uint => uint)) private _ownedTokens;\n    mapping(uint => uint) private _idToOwnedIndex;\n\n    uint256[] private _allNfts;\n    mapping(uint => uint) private _idToNftIndex;\n\n    event NftItemCreated (\n        uint tokenId,\n        uint price,\n        address creator,\n        bool isListed\n    );\n\n    constructor() ERC721(\"CreaturesNFT\", \"CNFT\") {}\n\n    function setListingPrice(uint newPrice) external onlyOwner {\n        require(newPrice > 0, \"Price must be atleast 1 wei\");\n        listingPrice = newPrice;\n    }\n\n    function getNftItem(uint tokenId) public view returns (NftItem memory) {\n        return _idToNftItem[tokenId];\n    }\n\n    function listedItemsCount() public view returns (uint) {\n        return _listedItems.current();\n    }\n\n    function tokenURIExists(string memory tokenURI) public view returns (bool) {\n        return _usedTokenURIs[tokenURI] == true;\n    }\n\n    function totalSupply() public view returns (uint) {\n        return _allNfts.length;\n    }\n\n    function tokenByIndex(uint index) public view returns (uint) {\n        require(index < totalSupply(), \"Index out of bounds\");\n        return _allNfts[index];\n    }\n\n    function tokenOfOwnerByIndex(address owner, uint index) public view returns (uint) {\n        require(index < ERC721.balanceOf(owner), \"Index out of bounds\");\n        return _ownedTokens[owner][index];\n    }\n\n    function getAllNftsOnSale() public view returns (NftItem[] memory) {\n        uint allItemsCount = totalSupply();\n        uint currentIndex = 0;\n        NftItem[] memory items = new NftItem[](_listedItems.current());\n\n        for (uint i = 0; i < allItemsCount; i++) {\n            uint tokenId = tokenByIndex(i);\n            NftItem storage item = _idToNftItem[tokenId];\n\n            if (item.isListed == true) {\n                items[currentIndex] = item;\n                currentIndex += 1;\n            }\n        }\n        return items;\n    }\n\n    function getOwnedNfts() public view returns (NftItem[] memory) {\n        uint ownedItemsCount = ERC721.balanceOf(msg.sender);\n        NftItem[] memory items = new NftItem[](ownedItemsCount);\n\n        for (uint i = 0; i < ownedItemsCount; i++) {\n            uint tokenId = tokenOfOwnerByIndex(msg.sender, i);\n            NftItem storage item = _idToNftItem[tokenId];\n            items[i] = item;\n        }\n        return items;\n    }\n\n    function mintToken(string memory tokenURI, uint price) public payable returns (uint) {\n        require(!tokenURIExists(tokenURI), \"Token URI already exists\");\n        require(msg.value == listingPrice, \"Price must be equal to listing price\");\n\n        _tokenIds.increment();\n        _listedItems.increment();\n\n        uint newTokenId = _tokenIds.current();\n\n        _safeMint(msg.sender, newTokenId);\n        _setTokenURI(newTokenId, tokenURI); \n        _createNftItem(newTokenId, price);\n        _usedTokenURIs[tokenURI] = true;\n\n        return newTokenId;\n    }\n\n    function buyNft(uint tokenId) public payable {\n        uint price = _idToNftItem[tokenId].price;\n        address owner = ownerOf(tokenId);\n\n        require(msg.sender != owner, \"You already own this NFT\");\n        require(msg.value == price, \"Please submit the asking price\");\n\n        _idToNftItem[tokenId].isListed = false;\n        _listedItems.decrement();\n\n        _transfer(owner, msg.sender, tokenId);\n        payable(owner).transfer(msg.value);\n    }\n\n    function placeNftOnSale(uint tokenId, uint newPrice) public payable {\n        require(ERC721.ownerOf(tokenId) == msg.sender, \"You are not the owner of this NFT\");\n        require(_idToNftItem[tokenId].isListed == false, \"Item is already on sale\");\n        require(msg.value == listingPrice, \"Price must be equal to the listing price\");\n\n        _idToNftItem[tokenId].isListed = true;\n        _idToNftItem[tokenId].price = newPrice;\n        _listedItems.increment();\n    }\n\n    function _createNftItem(uint tokenId, uint price) private {\n        require(price > 0, \"Price must be at least 1 wei\");\n\n        _idToNftItem[tokenId] = NftItem(tokenId, price, msg.sender, true);\n\n        emit NftItemCreated(tokenId, price, msg.sender, true);\n    }\n\n    function _beforeTokenTransfer(address from, address to, uint tokenId, uint batchSize) internal virtual override {\n        super._beforeTokenTransfer(from, to, tokenId, batchSize);\n\n        if (from == address(0)) {\n            _addTokenToAllTokensEnumeration(tokenId);\n        } else if (from != to) {\n            _removeTokenFromOwnerEnumeration(from, tokenId);\n        }\n\n        if (to == address(0)) {\n            _removeTokenFromAllTokensEnumeration(tokenId);\n        } else if (to != from) {\n             _addTokenToOwnerEnumeration(to, tokenId);\n        }\n    }\n\n    function _addTokenToAllTokensEnumeration(uint tokenId) private {\n        _idToNftIndex[tokenId] = _allNfts.length;\n        _allNfts.push(tokenId);\n    }\n\n    function _addTokenToOwnerEnumeration(address to, uint tokenId) private {\n        uint length = ERC721.balanceOf(to);\n\n        _ownedTokens[to][length] = tokenId;\n        _idToOwnedIndex[tokenId] = length;\n    }\n\n    function _removeTokenFromOwnerEnumeration(address from, uint tokenId) private {\n        uint lastTokenIndex = ERC721.balanceOf(from) - 1;\n        uint tokenIndex = _idToOwnedIndex[tokenId];\n\n        if (tokenIndex != lastTokenIndex) {\n            uint lastTokenId = _ownedTokens[from][lastTokenIndex];\n\n            _ownedTokens[from][tokenIndex] = lastTokenIndex;\n            _idToOwnedIndex[lastTokenId] = tokenIndex;\n        }\n\n        delete _idToOwnedIndex[tokenId];\n        delete _ownedTokens[from][lastTokenIndex];\n    }\n\n    function _removeTokenFromAllTokensEnumeration(uint tokenId) private {\n        uint lastTokenIndex = _allNfts.length - 1;\n        uint tokenIndex = _idToNftIndex[tokenId];\n        uint lastTokenId = _allNfts[lastTokenIndex];\n\n        _allNfts[tokenIndex] = lastTokenId;\n        _idToNftIndex[lastTokenId] = tokenIndex;\n\n        delete _idToNftIndex[tokenId];\n        _allNfts.pop();\n    }\n}",
  "sourcePath": "/Users/sukanyaparashar/Desktop/Learning-Ethereum/nft-marketplace/contracts/NftMarket.sol",
  "compiler": {
    "name": "solc",
    "version": "0.8.19+commit.7dd6d404.Emscripten.clang"
  },
  "schemaVersion": "3.4.13",
  "updatedAt": "2023-03-21T23:34:05.542Z",
  "networkType": "ethereum",
  "devdoc": {
    "events": {
      "Approval(address,address,uint256)": {
        "details": "Emitted when `owner` enables `approved` to manage the `tokenId` token."
      },
      "ApprovalForAll(address,address,bool)": {
        "details": "Emitted when `owner` enables or disables (`approved`) `operator` to manage all of its assets."
      },
      "Transfer(address,address,uint256)": {
        "details": "Emitted when `tokenId` token is transferred from `from` to `to`."
      }
    },
    "kind": "dev",
    "methods": {
      "approve(address,uint256)": {
        "details": "See {IERC721-approve}."
      },
      "balanceOf(address)": {
        "details": "See {IERC721-balanceOf}."
      },
      "getApproved(uint256)": {
        "details": "See {IERC721-getApproved}."
      },
      "isApprovedForAll(address,address)": {
        "details": "See {IERC721-isApprovedForAll}."
      },
      "name()": {
        "details": "See {IERC721Metadata-name}."
      },
      "owner()": {
        "details": "Returns the address of the current owner."
      },
      "ownerOf(uint256)": {
        "details": "See {IERC721-ownerOf}."
      },
      "renounceOwnership()": {
        "details": "Leaves the contract without owner. It will not be possible to call `onlyOwner` functions anymore. Can only be called by the current owner. NOTE: Renouncing ownership will leave the contract without an owner, thereby removing any functionality that is only available to the owner."
      },
      "safeTransferFrom(address,address,uint256)": {
        "details": "See {IERC721-safeTransferFrom}."
      },
      "safeTransferFrom(address,address,uint256,bytes)": {
        "details": "See {IERC721-safeTransferFrom}."
      },
      "setApprovalForAll(address,bool)": {
        "details": "See {IERC721-setApprovalForAll}."
      },
      "supportsInterface(bytes4)": {
        "details": "See {IERC165-supportsInterface}."
      },
      "symbol()": {
        "details": "See {IERC721Metadata-symbol}."
      },
      "tokenURI(uint256)": {
        "details": "See {IERC721Metadata-tokenURI}."
      },
      "transferFrom(address,address,uint256)": {
        "details": "See {IERC721-transferFrom}."
      },
      "transferOwnership(address)": {
        "details": "Transfers ownership of the contract to a new account (`newOwner`). Can only be called by the current owner."
      }
    },
    "version": 1
  },
  "userdoc": {
    "kind": "user",
    "methods": {},
    "version": 1
  }
}